:020000040800F2
:1000000000000220F91300087D1200087F1200088A
:100010008112000883120008851200080000000009
:10002000000000000000000000000000871200082F
:1000300089120008000000008B1200088D120008D1
:10004000491400084914000849140008491400081C
:10005000491400084914000849140008491400080C
:1000600049140008491400084914000849140008FC
:1000700049140008491400084914000849140008EC
:1000800049140008491400084914000849140008DC
:1000900049140008491400084914000849140008CC
:1000A00049140008491400084914000849140008BC
:1000B00049140008491400084914000849140008AC
:1000C000491400084914000849140008491400089C
:1000D000491400084914000849140008491400088C
:1000E000491400084914000849140008491400087C
:1000F000491400084914000849140008491400086C
:10010000491400084914000849140008491400085B
:10011000491400084914000849140008491400084B
:10012000491400084914000849140008491400083B
:1001300049140008000000000000000049140008F5
:10014000491400084914000849140008491400081B
:10015000491400084914000849140008491400080B
:1001600049140008491400084914000849140008FB
:1001700049140008491400080000000000000000B5
:080180004914000849140008AD
:1001900010B5054C237833B9044B13B10448AFF3C1
:1001A00000800123237010BDD40100200000000056
:1001B000A052000808B5034B1BB103490348AFF335
:1001C000008008BD00000000D8010020A0520008F7
:1001D00001F0FF01102A2BDB10F0070F08D010F8F8
:1001E000013B013A8B422DD010F0070F42B3F6D1FC
:1001F000F0B441EA012141EA014122F007047FF015
:1002000000070023F0E80256083C85EA010586EA6B
:10021000010685FA47F5A3FA87F586FA47F6A5FAA7
:1002200087F68EB9EED1F0BC01F0FF0102F00702B3
:1002300032B110F8013B013A83EA010313B1F8D15E
:100240000020704701387047002D06BF354603383F
:10025000073815F0010F07D1013015F4807F02BF78
:10026000013015F4C03F0130F0BC0138704700BFC9
:10027000034613F8012B002AFBD1181A01387047E6
:1002800081F0004102E000BF83F0004330B54FEA47
:1002900041044FEA430594EA050F08BF90EA020FB4
:1002A0001FBF54EA000C55EA020C7FEA645C7FEA47
:1002B000655C00F0E2804FEA5454D4EB5555B8BF6A
:1002C0006D420CDD2C4480EA020281EA030382EADB
:1002D000000083EA010180EA020281EA0303362D6D
:1002E00088BF30BD11F0004F4FEA01314FF4801C40
:1002F0004CEA113102D0404261EB410113F0004F52
:100300004FEA03334CEA133302D0524263EB430308
:1003100094EA050F00F0A780A4F10104D5F1200EA6
:100320000DDB02FA0EFC22FA05F2801841F1000101
:1003300003FA0EF2801843FA05F359410EE0A5F1D5
:1003400020050EF1200E012A03FA0EFC28BF4CF006
:10035000020C43FA05F3C01851EBE37101F00045BC
:1003600007D54FF0000EDCF1000C7EEB00006EEBC9
:100370000101B1F5801F1BD3B1F5001F0CD3490853
:100380005FEA30004FEA3C0C04F101044FEA4452AA
:1003900012F5800F80F09A80BCF1004F08BF5FEA31
:1003A000500C50F1000041EB045141EA050130BD11
:1003B0005FEA4C0C404141EB0101013C28BFB1F523
:1003C000801FE9D291F0000F04BF01460020B1FA6E
:1003D00081F308BF2033A3F10B03B3F120020CDA41
:1003E0000C3208DD02F1140CC2F10C0201FA0CF01F
:1003F00021FA02F10CE002F11402D8BFC2F1200C84
:1004000001FA02F120FA0CFCDCBF41EA0C01904039
:10041000E41AA2BF01EB0451294330BD6FEA040482
:100420001F3C1CDA0C340EDC04F11404C4F120026D
:1004300020FA04F001FA02F340EA030021FA04F37F
:1004400045EA030130BDC4F10C04C4F1200220FAD6
:1004500002F001FA04F340EA0300294630BD21FA14
:1004600004F0294630BD94F0000F83F4801306BFDA
:1004700081F480110134013D4EE77FEA645C18BFCE
:100480007FEA655C29D094EA050F08BF90EA020F65
:1004900005D054EA000C04BF1946104630BD91EA5D
:1004A000030F1EBF0021002030BD5FEA545C05D160
:1004B0004000494128BF41F0004130BD14F580049F
:1004C0003CBF01F5801130BD01F0004545F0FE4113
:1004D00041F470014FF0000030BD7FEA645C1ABF48
:1004E000194610467FEA655C1CBF0B46024650EA7F
:1004F000013406BF52EA033591EA030F41F40021AB
:1005000030BD00BF90F0000F04BF0021704730B530
:100510004FF4806404F132044FF000054FF0000105
:1005200050E700BF90F0000F04BF0021704730B5C6
:100530004FF4806404F1320410F0004548BF40429B
:100540004FF000013EE700BF42004FEAE2014FEAF0
:1005500031014FEA02701FBF12F07F4393F07F4FCB
:1005600081F06051704732F07F4208BF704793F0CE
:100570007F4F04BF41F40021704730B54FF46074E1
:1005800001F0004521F000411CE700BF50EA0102E4
:1005900008BF704730B54FF000050AE050EA01028D
:1005A00008BF704730B511F0004502D5404261EBFD
:1005B00041014FF4806404F132045FEA915C3FF43E
:1005C000D8AE4FF003025FEADC0C18BF03325FEADB
:1005D000DC0C18BF033202EBDC02C2F1200300FA8C
:1005E00003FC20FA02F001FA03FE40EA0E0021FAB1
:1005F00002F11444BDE600BF70B54FF0FF0C4CF49F
:10060000E06C1CEA11541DBF1CEA135594EA0C0F50
:1006100095EA0C0F00F0DEF82C4481EA030621EA8B
:100620004C5123EA4C5350EA013518BF52EA0335C6
:1006300041F4801143F4801338D0A0FB02CE4FF078
:100640000005E1FB02E506F00042E0FB03E54FF0A8
:100650000006E1FB03569CF0000F18BF4EF0010EA0
:10066000A4F1FF04B6F5007F64F5407404D25FEA9C
:100670004E0E6D4146EB060642EAC62141EA55514F
:100680004FEAC52040EA5E504FEACE2EB4F1FD0C91
:1006900088BFBCF5E06F1ED8BEF1004F08BF5FEA0F
:1006A000500E50F1000041EB045170BD06F00046C1
:1006B00046EA010140EA020081EA0301B4EB5C046E
:1006C000C2BFD4EB0C0541EA045170BD41F4801166
:1006D0004FF0000E013C00F3AB8014F1360FDEBF8B
:1006E000002001F0004170BDC4F10004203C35DA67
:1006F0000C341BDC04F11404C4F1200500FA05F3EA
:1007000020FA04F001FA05F240EA020001F000428A
:1007100021F0004110EBD37021FA04F642EB060100
:100720005EEA430E08BF20EAD37070BDC4F10C042A
:10073000C4F1200500FA04F320FA05F001FA04F2EE
:1007400040EA020001F0004110EBD37041F10001DA
:100750005EEA430E08BF20EAD37070BDC4F12005E5
:1007600000FA05F24EEA020E20FA04F301FA05F24D
:1007700043EA020321FA04F001F0004121FA04F2F5
:1007800020EA020000EBD3705EEA430E08BF20EAC5
:10079000D37070BD94F0000F0FD101F000464000FF
:1007A00041EB010111F4801F08BF013CF7D041EA81
:1007B000060195F0000F18BF704703F00046520085
:1007C00043EB030313F4801F08BF013DF7D043EA56
:1007D0000603704794EA0C0F0CEA135518BF95EA0C
:1007E0000C0F0CD050EA410618BF52EA4306D1D193
:1007F00081EA030101F000414FF0000070BD50EAB2
:10080000410606BF1046194652EA430619D094EA3B
:100810000C0F02D150EA013613D195EA0C0F05D125
:1008200052EA03361CBF104619460AD181EA030179
:1008300001F0004141F0FE4141F470014FF0000031
:1008400070BD41F0FE4141F4780170BD70B54FF0CC
:10085000FF0C4CF4E06C1CEA11541DBF1CEA13554C
:1008600094EA0C0F95EA0C0F00F0A7F8A4EB05042E
:1008700081EA030E52EA03354FEA013100F0888025
:100880004FEA03334FF0805545EA131343EA1263EE
:100890004FEA022245EA111545EA10654FEA0026A3
:1008A0000EF000419D4208BF964244F1FD0404F55C
:1008B000407402D25B084FEA3202B61A65EB0305B8
:1008C0005B084FEA32024FF480104FF4002CB6EB75
:1008D000020E75EB030E22BFB61A754640EA0C00F5
:1008E0005B084FEA3202B6EB020E75EB030E22BF35
:1008F000B61A754640EA5C005B084FEA3202B6EB76
:10090000020E75EB030E22BFB61A754640EA9C0034
:100910005B084FEA3202B6EB020E75EB030E22BF04
:10092000B61A754640EADC0055EA060E18D04FEAC2
:10093000051545EA16754FEA06164FEAC30343EA62
:1009400052734FEAC2025FEA1C1CC0D111F4801F2F
:100950000BD141EA00014FF000004FF0004CB6E728
:1009600011F4801F04BF01430020B4F1FD0C88BFC7
:10097000BCF5E06F3FF6AFAEB5EB030C04BFB6EBD2
:10098000020C5FEA500C50F1000041EB045170BDC5
:100990000EF0004E4EEA113114EB5C04C2BFD4EBF2
:1009A0000C0541EA045170BD41F480114FF0000E76
:1009B000013C90E645EA060E8DE60CEA135594EAF2
:1009C0000C0F08BF95EA0C0F3FF43BAF94EA0C0FF5
:1009D0000AD150EA01347FF434AF95EA0C0F7FF46A
:1009E00025AF104619462CE795EA0C0F06D152EABE
:1009F00003353FF4FDAE1046194622E750EA4106A2
:100A000018BF52EA43067FF4C5AE50EA41047FF4B2
:100A10000DAF52EA43057FF4EBAE12E74FF0FF3C17
:100A200006E000BF4FF0010C02E000BF4FF0010CE8
:100A30004DF804CD4FEA410C7FEA6C5C4FEA430C61
:100A400018BF7FEA6C5C1BD001B050EA410C0CBFB0
:100A500052EA430C91EA030F02BF90EA020F002012
:100A6000704710F1000F91EA030F58BF994208BF79
:100A700090422CBFD8176FEAE37040F00100704736
:100A80004FEA410C7FEA6C5C02D150EA013C07D18D
:100A90004FEA430C7FEA6C5CD6D152EA033CD3D0D8
:100AA0005DF8040B704700BF8446104662468C46D2
:100AB0001946634600E000BF01B5FFF7B7FF002805
:100AC00048BF10F1000F01BD4DF808EDFFF7F4FF2E
:100AD0000CBF012000205DF808FB00BF4DF808EDB9
:100AE000FFF7EAFF34BF012000205DF808FB00BFDC
:100AF0004DF808EDFFF7E0FF94BF012000205DF8FE
:100B000008FB00BF4DF808EDFFF7CEFF94BF0120B2
:100B100000205DF808FB00BF4DF808EDFFF7C4FFAB
:100B200034BF012000205DF808FB00BF4FEA410CF4
:100B30007FEA6C5C02D150EA013C0AD14FEA430CD7
:100B40007FEA6C5C02D152EA033C02D14FF0000014
:100B500070474FF0010070474FEA410212F5001252
:100B600015D211D56FF47873B3EB625212D94FEAF4
:100B7000C12343F0004343EA505311F0004F23FADE
:100B800002F018BF404270474FF00000704750EA33
:100B9000013005D111F0004008BF6FF000407047F0
:100BA0004FF00000704700BF53B94AB9002908BF91
:100BB00000281CBF4FF0FF314FF0FF3000F06AB942
:100BC000ADF1080C6DE904CE00F006F8DDF804E0A4
:100BD000DDE9022304B070472DE9F047089D0C467B
:100BE000002B4ED194468C458646B2FA82F262D9E9
:100BF0004AB1C2F12003914020FA03F30CFA02FC3F
:100C0000194300FA02FE4FEA1C471FFA8CF6B1FBAB
:100C1000F7F44FEA1E4307FB141143EA014304FBB8
:100C200006F199420AD91CEB030304F1FF3080F06E
:100C30001281994240F20F81023C6344591A1FFA13
:100C40008EF3B1FBF7F007FB101143EA014300FB01
:100C500006F69E420AD91CEB030300F1FF3180F037
:100C6000FC809E4240F2F980634402389B1B40EABC
:100C7000044000211DB1D3400022C5E90032BDE887
:100C8000F0878B4205D90DB1C5E900010021084666
:100C9000F5E7B3FA83F1002946D1A34202D390428B
:100CA000C0F0F080861A64EB03030120002DE6D02B
:100CB000C5E90063E3E7002A40F09080A1EB0C0453
:100CC0004FEA1C481FFA8CF70121B4FBF8F64FEAF3
:100CD0001E4308FB164443EA044307FB06F0984210
:100CE00008D91CEB030306F1FF3402D2984200F24C
:100CF000CD8026461C1A1FFA8EF3B4FBF8F008FBD1
:100D0000104443EA044300FB07F79F4208D91CEB59
:100D1000030300F1FF3402D29F4200F2B08020466C
:100D2000DB1B40EA0640A5E7C1F120068B4022FA12
:100D300006F71F4320FA06FC04FA01F343EA0C030A
:100D4000F44000FA01F8380C4FEA1349B4FBF0FE06
:100D50001FFA87FC00FB1E4449EA04440EFB0CF911
:100D6000A14502FA01F20AD93C190EF1FF3A80F0CE
:100D70008480A14540F28180AEF1020E3C44A4EB98
:100D800009041FFA83F9B4FBF0F300FB134449EAAA
:100D9000044403FB0CFCA44507D93C1903F1FF30C4
:100DA00067D2A44565D9023B3C4443EA0E40A0FB10
:100DB0000293A4EB0C049C42CE469C4651D34ED0E9
:100DC00055B1B8EB0E0364EB0C0404FA06F6CB4005
:100DD0001E43CC40C5E90064002150E7C2F1200366
:100DE00020FA03F10CFA02FC24FA03F394400C43BA
:100DF0004FEA1C4800FA02FE1FFA8CF7B3FBF8F02A
:100E000008FB1031230C43EA014300FB07F1994230
:100E100008D91CEB030300F1FF362CD299422AD9E2
:100E2000023863445B1AA4B2B3FBF8F108FB113338
:100E300044EA034401FB07F3A34208D91CEB040472
:100E400001F1FF3613D2A34211D902396444E41AE6
:100E500041EA004139E70446F0E6084606E7C8459E
:100E6000AED2B9EB020E63EB070C0138A8E73146AE
:100E7000EDE7034699E73046D4E7D6467FE763447B
:100E800002384DE70646234608460FE7023E634414
:100E900030E700BF704700BF30B589B01422002191
:100EA00003A802F02CF90024134B01941A6B134D84
:100EB00042F080021A631A6B02F080020192019ADA
:100EC00002941A6B42F001021A631B6B03F00103D8
:100ED0000293224628461821029B00F04BFC182260
:100EE000012303A92846CDE90323CDE9054400F0F9
:100EF00069FB09B030BD00BF00380240000002406D
:100F000010B594B01422002109A802F0F8F81422B8
:100F1000002103A802F0F3F800231F4A0193116C8B
:100F200041F080511164126C02F080520192019ADA
:100F30001A4A0293116841F4804111601268022438
:100F400002F480420820CDE90E430292A823CDE9A5
:100F50001003029A089401211022042308A8CDE965
:100F60000B121294139300F00BFC08B172B6FEE75B
:100F70000F23CDE9033405904FF4A0524FF4805372
:100F8000052103A8CDE9062300F0D6FD08B172B60D
:100F9000FEE714B010BD00BF0038024000700040F2
:100FA00070B500F077FAFFF7ABFFFFF775FF00F0C1
:100FB000F1F800F0CFF900F0ADF8A8B1154E164CDD
:100FC000164D3146204602F01AF92046FFF750F937
:100FD0004FF0FF3382B22146284601F0C6FA4FF4A3
:100FE0007A7000F083FAECE70D4E0B4C0B4D314656
:100FF000204602F004F92046FFF73AF94FF0FF339C
:1010000082B22146284601F0B0FA4FF47A7000F01F
:101010006DFAECE7B8520008F00100204C06002001
:10102000C552000872B6FEE773B500228DF80600BF
:10103000102131488DF8072000F09CFB4FF0FF3362
:1010400001220DF106012D4800F052FF01220DF1A1
:10105000070104464FF0FF33284801F0F4F801225D
:101060001021C4B12448264E264C274D00F082FBA7
:101070003146204602F0C3F82046FFF7F9F84FF05A
:10108000FF3382B22146284601F06FFA4FF47A709E
:1010900000F02CFAECE7C0B117481C4E194C1A4D61
:1010A00000F068FB3146204602F0A9F82046FFF721
:1010B000DFF84FF0FF3382B22146284601F055FA9F
:1010C0004FF47A7000F012FAECE70B4800F052FB94
:1010D0009DF807200E490B4801F0AEFF0948FFF7C5
:1010E000C7F8084982B24FF0FF33074801F03DFAD4
:1010F0009DF8070002B070BD00000240F00500201E
:10110000D3520008F00300204C060020E9520008EA
:101110000653000870B5012210211A481A4E1B4CC4
:101120001B4D00F027FB0A2000F0E0F900221021FF
:10113000144800F01FFB0A2000F0D8F9012210210A
:10114000104800F017FB282000F0D0F9322000F002
:10115000CDF90020FFF768FF49280246F9D0314653
:10116000204601F069FF2046FFF782F84FF0FF3379
:1011700082B22146284601F0F8F94FF4967000F04B
:10118000B5F9E6E7000002401B530008F003002019
:101190004C0600200E480F4A08B54FF48273C0E990
:1011A00000230023C0E90233C0E90433C0E9083357
:1011B0004FF40071282283620A23C0E90612C36239
:1011C00000F03AFE18B1BDE80840FFF72BBF08BD9C
:1011D000F00500200030014010B5044688B014220C
:1011E000002103A801F08BFF2268144B9A4222D100
:1011F00003F58433002101915A6C114842F4805266
:101200005A645A6C02F480520192019A02911A6B4C
:1012100042F001021A631B6B03F001030293029B6D
:10122000E02202230321CDE903230523CDE90613A0
:1012300003A900F0C7F908B010BD00BF003001409D
:101240000000024082B00C4B002100915A6C42F425
:1012500080425A645A6C02F480420092009A0191D2
:101260001A6C42F080521A641B6C03F08053019395
:10127000019B02B0704700BF00380240FEE7FEE766
:10128000FEE7FEE7FEE770477047704700F01CB9C5
:101290000120704708B501F085FF162303604FF069
:1012A000FF3008BD08B501F07DFF16230360FEE79F
:1012B00070B50D4614460E46731B9C4201DC204659
:1012C00070BDAFF3008006F8010BF5E770B50D4671
:1012D00014460E46731B9C4201DC204670BD16F876
:1012E000010BAFF30080F5E74FF0FF3070474FF48C
:1012F00000534B600020704701207047002070476A
:101300000B4A116810B5034609B90A491160106803
:1013100009490A4C0344091B8B4206D901F042FFDC
:101320000C2303604FF0FF3010BD1360FCE700BFDB
:1013300048060020E807002000000220000400000A
:10134000034AD2F8883043F47003C2F888307047FB
:1013500000ED00E00B480C4A08B54FF4E133C0E95A
:10136000002300230C22C0E90233C0E905230361F6
:10137000C36101F0CBF818B1BDE80840FFF752BED9
:1013800008BD00BF4C0600200010014010B5044607
:1013900088B01422002103A801F0B1FE2268144B8A
:1013A0009A4223D103F59433002101915A6C1148DC
:1013B00042F010025A645A6C02F010020192019A33
:1013C00002911A6B42F001021A631B6B03F00103D6
:1013D0000293029B4FF4C06202230321CDE9032351
:1013E0000723CDE9061303A900F0ECF808B010BDFF
:1013F0000010014000000240DFF834D0FFF7A0FFEA
:101400000C480D490D4A002302E0D458C45004335F
:10141000C4188C42F9D30A4A0A4C002301E0136035
:101420000432A242FBD301F0C3FEFFF7B9FD7047BF
:101430000000022000000020D4010020C85600084F
:10144000D4010020E4070020FEE7000038B50E4B71
:101450001A784FF47A73B3FBF2F30C4A054610681E
:10146000B0FBF3F000F09AF8044658B90F2D09D8F4
:10147000024629464FF0FF3000F05EF8044B20464C
:101480001D6038BD0120FCE70400002000000020A2
:101490000800002008B50B4B1A6842F400721A606D
:1014A0001A6842F480621A601A6842F480721A6004
:1014B000032000F02FF80F20FFF7C8FFFFF7C2FE50
:1014C000002008BD003C0240034A044B11681B7811
:1014D0000B441360704700BF9406002004000020F6
:1014E000014B1868704700BF9406002038B50446C9
:1014F000FFF7F6FF631C1CBF054B1B78054618BFA2
:10150000E418FFF7EDFF431BA342FAD338BD00BF39
:10151000040000200749CA6822F4E06203021204B2
:1015200003F4E063120C134343F0BF6343F400334E
:10153000CB60704700ED00E0164B30B5DC68C4F3BB
:101540000224C4F10703251D042B28BF0423062D04
:101550004FF0FF358CBF033C002405FA03F321EA6A
:101560000303A54022EA0502A340002843EA020340
:10157000ACBF00F16040084A4FEA0313B8BF00F067
:101580000F00DBB2AABF00F56140135480F80033AE
:1015900030BD00BF00ED00E014ED00E00138B0F117
:1015A000807F0BD24FF0E023054A5861F02182F88A
:1015B00023100020072298611A61704701207047AC
:1015C00000ED00E02DE9F74FDFF8A491664A002313
:1015D0000D6801249C4004EA0506AC4340F0AF804E
:1015E0004D68032705F003044FEA430807FA08FC97
:1015F000671E012F6FEA0C0C34D8876807EA0C0EBF
:10160000CF6807FA08F747EA0E078760476827EAB6
:10161000060EC5F300179F4047EA0E074760C768EC
:1016200007EA0C0E8F6807FA08F747EA0E07022C44
:10163000C76019D14FEAD30A00EB8A0A03F0070BFF
:10164000DAF820704FEA8B0B4FF00F0E0EFA0BFEFC
:1016500027EA0E0E0F6907FA0BF747EA0E07CAF8DA
:10166000207001E0032CDAD1076804FA08F407EAD5
:101670000C073C4315F4403F046060D00024019403
:10168000D9F8444044F48044C9F84440D9F844406F
:1016900023F0030707F1804704F4804407F59C37E3
:1016A000019403F0030C019CD7F808E04FEA8C0C7E
:1016B0000F2404FA0CF42EEA040E2C4CA04245D060
:1016C00004F58064A04243D004F58064A04241D078
:1016D00004F58064A0423FD004F58064A0423DD070
:1016E00004F58064A0423BD004F58064A04239D068
:1016F00004F58064A04214BF0824072404FA0CF403
:1017000044EA0E04BC609468F74315F4801F0CBFD4
:101710003C4034439460D46815F4001F0CBF3C4037
:101720003443D460546815F4003F0CBF3C4034434C
:1017300054601468ED0354BF3C40344314600133DB
:10174000102B7FF445AF03B0BDE8F08F0024D5E740
:101750000124D3E70224D1E70324CFE70424CDE713
:101760000524CBE70624C9E7003C01400000024005
:10177000003802400AB1816170470904FBE70000AC
:101780002DE9F341044640B30368DE0710D4236813
:101790009D075BD42368190700F19D8023685A07D1
:1017A00000F1BD80A369002B40F0248100202CE0D3
:1017B0008D4B9A6802F00C02042A07D09A6802F056
:1017C0000C02082A0BD15B68590208D5864B1B68AE
:1017D0009A03DCD56368002BD9D1012015E063683A
:1017E000814DB3F5803F13D12B6843F480332B60D8
:1017F000FFF776FE7C4E054633689B03C7D4FFF7A0
:101800006FFE401B6428F7D9032002B0BDE8F081C9
:10181000B3F5A02F04D12B6843F480232B60E3E7BA
:101820002A6822F480322A602A6822F480222A6000
:10183000002BDDD1FFF754FE06462B689F03A6D58B
:10184000FFF74EFE801B6428F7D9DDE7664B9A68E8
:1018500012F00C0F07D09A6802F00C02082A11D17E
:101860005B685D020ED4604A1368990702D5E3688D
:10187000012BB2D11368216923F0F80343EAC103B5
:10188000136087E7E268594BB2B101221A60FFF793
:1018900027FE554D06462B689B0707D52B68226906
:1018A00023F0F80343EAC2032B6073E7FFF718FE47
:1018B000801B0228EFD9A7E71A60FFF711FE4A4EF6
:1018C000054633689F077FF565AFFFF709FE401BAC
:1018D0000228F6D998E76269444B82B10122C3F825
:1018E000802EFFF7FDFD404E0546736F9B073FF5C9
:1018F00055AFFFF7F5FD401B0228F6D984E7C3F882
:10190000802EFFF7EDFD384E0546736F9F077FF57C
:1019100045AFFFF7E5FD401B0228F6D974E7324BCF
:101920001A6C12F0805228D101921A6C42F0805247
:101930001A641B6C03F080530193019B01272C4D0B
:101940002B68D8051BD5A368274D012B27D12B6FFA
:1019500043F001032B67FFF7C3FD234E054641F219
:101960008838336F9A0739D5002F3FF41BAF1E4AD2
:10197000136C23F08053136414E70027DFE72B6810
:1019800043F480732B60FFF7ABFD06462B68D90547
:10199000D9D4FFF7A5FD801B0228F7D934E7052B22
:1019A00004D12B6F43F004032B67D0E72A6F22F09A
:1019B00001022A672A6F22F004022A67002BCAD18B
:1019C000FFF78EFD41F2883806462B6F9B07CBD57B
:1019D000FFF786FD801B4045F7D915E7FFF780FD2F
:1019E000401B4045BDD90FE7003802400000474288
:1019F00000700040374DAA6802F00C02082A3ED061
:101A0000022B354B4FF000021A662BD1FFF768FD11
:101A100006462B6899011FD4D4E907321343626A42
:101A200043EA8213E26A43EA0263A26A5208013A75
:101A300043EA02436B60284B264D01221A66FFF7EA
:101A40004FFD04462B689A013FF5B0AEFFF748FD05
:101A5000001B0228F6D9D7E6FFF742FD801B0228BB
:101A6000D7D9D1E6FFF73CFD04462B689B017FF5F3
:101A70009DAEFFF735FD001B0228F6D9C4E6012B09
:101A80003FF4ABAE6B68E26903F4800191427FF4EE
:101A9000A4AE216A03F03F028A427FF49EAE616ADF
:101AA00047F6C0721A40B2EB811F7FF496AEA26A6D
:101AB000520803F44031013AB1EB024F7FF48DAE8E
:101AC000E26A03F07063B3EB026F14BF01200020E1
:101AD0009BE600BF0038024000004742134908B5AA
:101AE0008B6803F00C03042B1CD0082B1CD14A6814
:101AF0004B68496813F4800314BF0D480D48C1F3C7
:101B0000881118BF002302F03F02A1FB0001FFF77C
:101B10004BF8064B5B68C3F3014301335B00B0FB3A
:101B2000F3F008BD0248FCE70248FAE7003802403B
:101B300040787D010024F4002DE9F0410D46044673
:101B400010B90120BDE8F081434B1A6802F007028A
:101B50008A4228D321688F072DD4C80740D43E4B32
:101B60001A6802F00702AA4265D8226851076BD4AE
:101B7000130707D5394A2169936823F4604343EA80
:101B8000C1039360FFF7AAFF344B354A9B68C3F348
:101B90000313D35CD840334B1860334B1868FFF7FE
:101BA00055FC0020CEE7CAB21A701B6803F0070389
:101BB0008B42C6D1CEE7294B11F0040F1EBF9A68A5
:101BC00042F4E0529A600E0742BF9A6842F46042C3
:101BD0009A609A68A06822F0F00202439A60BCE71B
:101BE00062681E4B012A1CD11B6813F4003FA8D069
:101BF0001A4EB36823F003031343B360FFF770FC7E
:101C000041F288380746B368626803F00C03B3EB0F
:101C1000820FA4D0FFF764FCC01B4045F3D903201A
:101C200090E7911E01291B6802D813F0007FDEE7C0
:101C300013F0020FDBE7EAB21A701B6803F0070328
:101C4000AB427FF47EAF90E70449E0688B6823F4F1
:101C5000E05303438B608BE7003C024000380240B6
:101C6000395300080000002008000020044B054AFA
:101C70009B68C3F38223D35C034A1068D840704743
:101C8000003802403153000800000020044B054A90
:101C90009B68C3F34233D35C034A1068D840704753
:101CA0000038024031530008000000202DE9F347BE
:101CB0001F46894690460446FFF712FC0A9D3D44A4
:101CC0002D1AFFF70DFC264B1E68C6F3CB366E436C
:101CD000824601962268936839EA03030CBF012308
:101CE0000023434501D100202EE07B1CF3D0FFF7F9
:101CF000F7FBA0EB0A00A84229D323685A6822F018
:101D0000E0025A606268B2F5827F0AD1A268B2F539
:101D1000004F02D0B2F5806F03D11A6822F0400262
:101D20001A60A26AB2F5005F07D11A6822F4005265
:101D30001A601A6842F400521A60012384F8513084
:101D4000002384F85030032002B0BDE8F087019AE8
:101D5000019B002A03F1FF33019308BF1546B9E741
:101D600000000020F0B585B00B4600920E461746E5
:101D7000022101220446FFF799FF054628B1636D51
:101D800043F020036365032515E0124B1868124BDE
:101D9000B0FBF3F04FF47A73584363680390B3F5E4
:101DA000827F0BD1009733462A4680212046FFF7D9
:101DB0007DFF0028E3D1284605B0F0BD039B002B32
:101DC000F9D0039B013B039323689B681B06F5D462
:101DD000F1E700BF0000002000366E0137B50B466A
:101DE0004168B1F5827F044608D0009201210022AB
:101DF000FFF75CFFD0B9002003B030BD8168B1F5BA
:101E0000004F02D0B1F5806F07D125682868B1F581
:101E1000806F20F04000286004D0009280210022D2
:101E20002046E5E7009201210022F9E7636D43F0C7
:101E3000200363650320DFE710B50446002855D072
:101E4000436A002B4ED14268B2F5827F00D0C36155
:101E50000023A36294F8513003F0FF0223B984F801
:101E600050202046FFF7B8F92168A068A269022334
:101E700084F851300B6823F040030B60636800F472
:101E8000044003F482730343E06800F400600343FA
:101E9000206900F002000343606900F00100034381
:101EA00002F400700343E06900F038000343206A45
:101EB00000F080000343A06A00F4005003430B606D
:101EC000636A120C03F0100302F004021A434A6022
:101ED000CB6923F40063CB6100200123606584F8A3
:101EE000513010BD0023C0E90433B1E70120F8E709
:101EF0002DE9F3471F4690F85030012B04460D465C
:101F0000904600F0A680012380F85030FFF7E8FAF1
:101F100094F85130012B82465FFA83F940F09680A5
:101F2000002D67D0B8F1000F64D0032384F851303E
:101F300000236365C4E91033A4F83680A363A38744
:101F4000E387A36826682563B3F5004FA4F83480BF
:101F500007D1336823F040033360336843F4804390
:101F60003360336862685B065EBF336843F04003EA
:101F70003360E368B3F5006F43D112B1B8F1010FDC
:101F800007D135F8023BF3602563E38E013B9BB23A
:101F9000E386E38E9BB2B3B9524639462046FFF73B
:101FA000E1FE00284FD1A36833B901932368DA68B2
:101FB00001929B680193019B636DDBB9012284F858
:101FC0005120994616E022689368980705D5236B3F
:101FD00033F8021BD1602363D7E7FFF781FAA0EB48
:101FE0000A00B842D5D3791CD3D0012384F85130EC
:101FF0004FF00309002384F85030484602B0BDE892
:10200000F08712B1B8F1010F08D12B783373236B2D
:1020100001332363E38E013B9BB2E386E38E9BB2E5
:10202000002BB9D023689A68920703D5226B1278E7
:102030001A73ECE7FFF754FAA0EB0A00B842EDD3AD
:102040007B1CEBD0D1E720236365ACE74FF002099E
:10205000D0E74FF00209D0E72DE9F7431E4690F88C
:102060005030DDF82880012B04460D46914600F0E3
:10207000E880012380F85030FFF732FA94F85130AD
:102080006268012B0746D9B20AD0B2F5827F40F0D0
:10209000D680A368002B40F0D280042940F0CF8086
:1020A000002D3FD0B9F1000F3CD0002E3AD094F86B
:1020B0005130C4F83890042B1CBF052384F85130EC
:1020C00000236365C4E910332368E687E686196850
:1020D000A687490658BF1968256358BF41F04001DB
:1020E000A68658BF1960E168B1F5006F51D10AB1F9
:1020F000012E07D135F8022BDA60E38E2563013B10
:102100009BB2E3860125E38E9BB26BB9E38F9BB252
:1021100053B93A4641462046FFF724FE00287DD0B9
:102120002023636501202EE021688B689A070DD576
:10213000E38E9BB253B145B1236B33F8022BCA60D7
:102140002363E38E013B9BB2E38600258A6812F08D
:1021500001020CD0E38F9BB24BB1A36BC96823F88B
:10216000021BA363E38F013B9BB2E3871546FFF796
:10217000B7F9C01B4045C6D3B8F1FF3FC3D0012318
:1021800084F851300320002384F8503003B0BDE8B8
:10219000F0830AB1012E08D12A781A73236B013318
:1021A0002363E38E013B9BB2E38601252DE0226889
:1021B00093689B070ED5E38E9BB25BB14DB1236B49
:1021C0001B781373236B01332363E38E013B9BB2B4
:1021D000E38600252268916811F001010DD0E38F9C
:1021E0009BB253B1A36BD2681A70A36B0133A36384
:1021F000E38F013B9BB2E3870D46FFF771F9C01BEC
:10220000404502D3B8F1FF3FB9D1E38E9BB2002B1A
:10221000CDD1E38F9BB2002BC9D17AE7A36833B944
:1022200023680190DA6801929B680193019B636DBA
:10223000002B7FF477AF012384F85130A3E702200D
:10224000A1E70220A2E72DE9F3471E4690F851309E
:10225000012B04468A469046DDB240F095804368E3
:10226000B3F5827F0ED1836863B9042380F85130BF
:10227000134600960A46FFF7EFFE0546284602B0D1
:10228000BDE8F08794F85030012B7FD0012384F80B
:102290005030FFF725F98146BAF1000F64D0B8F14C
:1022A000000F61D0A268C4F838A000270423B2F55B
:1022B000004F84F85130C4E9107767652368A4F8AB
:1022C0003E80A4F83C802763A786E78607D11A687A
:1022D00022F040021A601A6822F480421A601A68DA
:1022E00057065EBF1A6842F040021A60E368F3B115
:1022F000E38F9BB2FBB123689A68D20738D5DA68BE
:10230000A36B23F8022BA363E38F013B9BB2E3870C
:10231000EEE723689A68D0071AD5A26B1B7B13706F
:10232000A36B0133A363E38F013B9BB2E387E38F8E
:102330009BB2002BEDD14A4631462046FFF74EFDB9
:10234000F8B9636D83B9012284F851201D460BE072
:10235000FFF7C6F8A0EB0900B042E8D3711CE6D045
:10236000012384F851300325002384F8503085E799
:10237000FFF7B6F8A0EB0900B042B9D3731CB7D091
:10238000EEE720236365DCE70225EDE7022575E72C
:10239000026802F10C0353E8003F23F490730C32FF
:1023A00042E8003102680029F2D102F1140353E837
:1023B000003F23F0010302F1140C4CE80031002926
:1023C000F3D1036B012B0BD102F10C0353E8003F57
:1023D00023F0100302F10C0C4CE800310029F3D17A
:1023E000202380F842300023036370470268C168ED
:1023F00038B5136923F440530B43136105468368D2
:102400000069D168034368690343E86921F4164110
:1024100021F00C0103430B43D3605369A96923F4F2
:1024200040730B4353611F4B9A4203D003F5806303
:102430009A4224D1FFF72AFCEA691921B2F5004F2C
:10244000D5E90043A0FB01011CD1DA184FF00005CB
:1024500045EB0503FEF7A8FB6422B0FBF2F102FB9B
:102460001103DB003233B3FBF2F303F007025B002E
:1024700002EB011203F4F8731344A36038BDFFF7B5
:10248000F5FBD9E79A009B0FFEF78EFB6422B0FBA9
:10249000F2F102FB11031B013233B3FBF2F303EB46
:1024A0000113EAE700100140F7B505460C46174650
:1024B0001E462A68136834EA030301D1002021E094
:1024C000701CF7D0FFF70CF8C01B86421CD3DEB19E
:1024D0002B68DA685107ECD5802CEAD0402CE8D084
:1024E0001A681207E5D5002401941A6801925B6806
:1024F00001932846019BFFF74BFF08236B6485F887
:102500004040012003B0F0BD0320FBE710B50446B6
:1025100048B390F8413003F0FF021BB980F8402027
:10252000FEF734FF2268242384F84130D36823F473
:102530000053D3602046FFF759FF23681A6922F43D
:1025400090421A615A6922F02A025A61DA6842F40A
:102550000052DA6000202023606484F8413084F85F
:102560004230606310BD0120FCE72DE9F843984636
:1025700090F84130202B04460E4617463FD10029E3
:102580003FD0002A3DD021230025456480F841300A
:10259000FEF7A6FFA368A784B3F5805F8146E784B2
:1025A00003D123690BB935461E46E38C9BB253B960
:1025B00043464A4640212046FFF776FF202350B984
:1025C00084F841300AE043464A4680212046FFF71E
:1025D0006BFF28B1202384F841300320BDE8F88345
:1025E00022684EB935F8023BC3F308035360E18C0F
:1025F000013989B2E184D8E716F8013BF6E70220F9
:10260000ECE70120EAE72DE9FF4757EC106B002FBC
:102610000C4619463B46BBBF07F100431F4600234B
:102620002D230B700D9BDDF830A0914623F0200880
:10263000BCBF32461646B8F1460F05D0B8F1450F7B
:1026400000D10134022100E0032103AB019302AB6E
:10265000009347EC106B5346224600F061FEB8F140
:10266000470F054619D119F0010F0ED000EB0409F0
:102670000022002330463946FEF726FA08B1CDF88D
:102680000C903022039B4B451ED3039B0E9A5B1B81
:102690002846136004B0BDE8F087B8F1460F00EBA0
:1026A0000409E5D10378302B0AD1002200233046FB
:1026B0003946FEF709FA18B9C4F10104CAF8004016
:1026C000DAF800309944D3E7591C03911A70D9E71E
:1026D000F7B50029BABF49422D232B2309290270DF
:1026E000437029DD0DF107031D460A271A46B1FB89
:1026F000F7F607FB1614303402F8014C0C46632C35
:1027000003F1FF333146F1DC3031941E03F8011C34
:10271000411C2346AB420AD30DF109039B1AAC427C
:1027200088BF002302330344181A03B0F0BD13F826
:10273000016B01F8016FEDE7302330318370C17018
:10274000031DF1E72DE9F04F8DB00C46DDF8588000
:1027500016461F46054600F0DBFC03680493184646
:10276000FDF786FD00230A93D8F800300590073363
:1027700023F0070303F1080294F818A0D4F800B07E
:10278000C8F80020D3E9008929F000430793CDF869
:102790001880C4E91289DDE906019C4B4FF0FF3235
:1027A000FEF7C4F970BBDDE90601984B4FF0FF322C
:1027B000FEF79EF930BB0022002340464946FEF753
:1027C0008DF910B12D2384F84330914A914BBAF121
:1027D000470F94BF90469846032323612BF00403D0
:1027E00023604FF00009009733460BAA2146284684
:1027F00000F0D2F9013040F08D804FF0FF300DB085
:10280000BDE8F08F42464B4640464946FEF78EF9FA
:1028100040B14B46002BBCBF2D2384F843307E4A89
:102820007E4BD4E763680AF0DF0206925A1C3BD164
:10283000062363604BF480620023226003930AAB9B
:10284000CDE901A309AB0093616849EC108B0DF150
:1028500023032846FFF7D7FE069B0999472B80469E
:1028600029D1C81C02DB6368994241DDAAF1020A42
:102870005FFA8AFA0139524604F150000991FFF7D4
:1028800027FF0A9A1318012A8146236102DC226875
:10289000D20701D5013323619DF82330002BA2D04C
:1028A0002D2384F843309EE7069A472AC2D1002B95
:1028B000C0D10123BDE7BAF1650FDBD9BAF1660FCC
:1028C00018D1002963680BDD216113B92268D00794
:1028D00002D501330B442361A1654FF00009DBE70A
:1028E00013B92268D20701D50233F4E70123F2E7D6
:1028F0004FF0670A0A9B994205DB23682161D807DC
:10290000EAD54B1CE7E70029D4BFC1F1020201223E
:102910001344E0E723685A0507D423694246314649
:102920002846B84701302BD167E7BAF1650F40F26E
:10293000DD80D4E9120100220023FEF7C5F800284B
:1029400033D0374A012331462846B84701303FF497
:1029500054AFDDE90938434502DB2368D8070FD5BA
:10296000DDE9042331462846B84701303FF445AF3E
:102970004FF0000908F1FF3804F11A0AC84509DCD4
:1029800023689B0700F10381E0680B9B9842B8BF66
:10299000184634E70123524631462846B8470130ED
:1029A0003FF42BAF09F10109E8E7099B002B39DC63
:1029B0001B4A012331462846B84701303FF41DAF7A
:1029C000DDE9093959EA030302D12368D907D7D5CC
:1029D000DDE9042331462846B84701303FF40DAF06
:1029E0004FF0000A04F11A0B099B5B42534501DCCE
:1029F0004B4693E701235A4631462846B8470130F3
:102A00003FF4FBAE0AF1010AEEE700BFFFFFEF7FE4
:102A1000495300084D53000851530008555300080E
:102A200059530008A36DDDF828A05345A8BF5346AD
:102A3000002B994636DC4FF0000B29EAE97904F1C6
:102A40001A02A36D0693A3EB09035B4531DC099BD6
:102A50009A453ADC2368DA0737D4099BAAEB0309C5
:102A6000069BAAEB03039945A8BF9946B9F1000F4D
:102A700033DC4FF0000829EAE97904F11A0B099BCD
:102A8000AAEB0303A3EB090343457FF779AF0123C7
:102A90005A4631462846B84701303FF4AEAE08F1F9
:102AA0000108ECE7424631462846B8470130C2D11A
:102AB000A3E60123314628460692B84701303FF489
:102AC0009CAE069A0BF1010BBBE7DDE9042331460E
:102AD0002846B8470130C0D18FE6069A4B4642449B
:102AE00031462846B8470130C3D186E6DDF828A034
:102AF000BAF1010F01DCDB0736D50123424631462E
:102B00002846B84701303FF478AEDDE9042331466A
:102B10002846B84701303FF470AED4E912010022D4
:102B200000230AF1FF3AFDF7CFFFC0B9534608F181
:102B3000010231462846B84701300CD15DE6012339
:102B40005A4631462846B84701303FF456AE08F1A0
:102B50000108D045F3DB4B4604F15002DFE64FF0AD
:102B6000000804F11A0BF4E701234246E1E70123D0
:102B70004A4631462846B84701303FF43EAE08F198
:102B80000108E3680B995B1A4345F0DCFCE64FF063
:102B9000000804F11909F4E72DE9F04716469846B4
:102BA0008A680B69DDF820909342B8BF1346336002
:102BB00091F8432007460C460AB10133336023687D
:102BC000990642BF336802333360256815F0060565
:102BD00006D104F1190AE36832689B1AAB4226DC7D
:102BE00094F843302268003B18BF012392062BD48F
:102BF00004F1430241463846C84701301ED02368DD
:102C0000226903F00603042B02BFE5683368ED1A5E
:102C1000A3680CBF25EAE57500259342C4BF9B1A43
:102C2000ED1800261A34B5421AD1002008E001231D
:102C3000524641463846C847013003D14FF0FF3075
:102C4000BDE8F0870135C6E7E1185A1C302081F84D
:102C50004300224494F8451082F843100233C7E73A
:102C60000123224641463846C8470130E6D00136A6
:102C7000D9E700002DE9FF470F7E0C9E782F914683
:102C800080460C469A4601F1430207D8622F0AD8C3
:102C9000002F00F0D280582F00F0B98004F14206D6
:102CA00084F842703AE0A7F16303152BF6D801A12E
:102CB00051F823F00D2D0008212D00089D2C00084F
:102CC0009D2C00089D2C00089D2C0008212D00083B
:102CD0009D2C00089D2C00089D2C00089D2C0008B0
:102CE000212E00084B2D0008DB2D00089D2C00082C
:102CF0009D2C0008432E00089D2C00084B2D000839
:102D00009D2C00089D2C0008E32D000833681A1D37
:102D10001B68326004F1420684F8423001239DE0D2
:102D200033682068191D3160060601D51D6803E06F
:102D30004506FBD5B3F90050002D03DA2D236D4273
:102D400084F8433059480A2311E0216833680806A3
:102D500053F8045B02D4490648BFADB26F2F534805
:102D6000336014BF0A230823002184F843106668E7
:102D7000A660002EA2BF216821F0040121600DB9D8
:102D8000002E4BD01646B5FBF3F103FB1157C75D80
:102D900006F8017D2F46BB420D46F4D9082B0BD116
:102DA0002368DF0708D5236961689942DEBF3023B5
:102DB00006F8013C06F1FF36921B2261CDF800A017
:102DC0004B4603AA21464046FFF7E6FE01304AD1B2
:102DD0004FF0FF3004B0BDE8F087236843F02003D4
:102DE00023603348782784F84570236831681F06CC
:102DF00051F8045B02D45F0648BFADB23160D90719
:102E000044BF43F0200323601DB11023ACE72748E3
:102E1000E9E7236823F020032360F6E71646BDE7C1
:102E2000336825686169181D30602E061B6801D55E
:102E3000196002E06806FBD519800023236116465D
:102E4000BCE733681A1D32601E6862680021304694
:102E5000FDF7BEF908B1801B606063682361002341
:102E600084F84330AAE72369324649464046D047B2
:102E70000130ADD023689B0713D4E068039B9842D0
:102E8000B8BF1846A6E70123324649464046D04718
:102E900001309DD00135E36803995B1AAB42F2DC47
:102EA000EBE7002504F11906F5E700BF5B530008C6
:102EB0006C530008002310B50446C0E90033C0E994
:102EC0000433836081814366C2818361194608228D
:102ED0005C3000F014F90D4B63620D4BA3620D4B97
:102EE000E3620D4B23630D4B24629C4206D003F139
:102EF0006802944202D0D0339C4205D104F15800BC
:102F0000BDE8104000F078B910BD00BF793000086E
:102F10009B300008D3300008F730000898060020E6
:102F2000024A0349034800F069B800BF0C000020C2
:102F3000654B00081C00002041680C4B994210B5FD
:102F4000044601D001F00EFEA168094B994202D05F
:102F5000204601F007FEE168064B994204D0204666
:102F6000BDE8104001F0FEBD10BD00BF9806002076
:102F7000000700206807002010B50B4B0B4C0C4AD3
:102F80001A60204600220421FFF794FF04F1680034
:102F900001220921FFF78EFF04F1D0000222BDE8D3
:102FA00010401221FFF786BFD007002098060020AE
:102FB000212F0008014800F020B900BFD9070020E8
:102FC000014800F01BB900BFD907002010B5044626
:102FD000FFF7F0FF236A1BB1BDE81040FFF7F0BF19
:102FE000044B2362044B1B68002BF5D1FFF7C4FF91
:102FF000F2E700BF392F0008D00700202DE9F84381
:103000000746884614460026D4E90195B9F101091E
:1030100005D52468002CF7D13046BDE8F883AB898C
:10302000012B07D9B5F90E30013303D029463846B4
:10303000C04706436835E9E70EB400B59CB01DAB48
:10304000029006906FF000410948079104910949E8
:1030500053F8042B05910068019302A901F002FCCA
:10306000029B00221A701CB05DF804EB03B070479D
:10307000180000200802FFFF10B50C46B1F90E1031
:1030800000F06CF80028ABBF636DA3891B1823F414
:103090008053ACBF6365A38110BD2DE9F0411F468D
:1030A0008B89DB0505460C46164605D5B1F90E1091
:1030B0000223002200F040F8A389B4F90E1023F493
:1030C0008053A38132463B462846BDE8F04100F0DC
:1030D00057B810B50C46B1F90E1000F02DF8431C8E
:1030E000A38915BF606523F4805343F48053A38103
:1030F00018BFA38110BDB1F90E1000F00DB8024445
:103100000346934200D1704703F8011BF9E7000022
:10311000004870475801002038B5064D002304468A
:1031200008462B60FEF7E0F8431C02D12B6803B180
:10313000236038BDD407002038B5074D0446084643
:10314000114600222A601A46FEF7D8F8431C02D125
:103150002B6803B1236038BDD407002038B5074D74
:1031600004460846114600222A601A46FEF7A0F8D7
:10317000431C02D12B6803B1236038BDD407002063
:1031800038B5074D04460846114600222A601A4603
:10319000FEF79CF8431C02D12B6803B1236038BDB5
:1031A000D4070020014B1868704700BF18000020AA
:1031B00070B50D4D0D4C641BA4100026A64209D11C
:1031C0000B4D0C4C02F06CF8641BA4100026A642B8
:1031D00005D170BD55F8043B98470136EEE755F828
:1031E000043B98470136F2E7C0560008C056000875
:1031F000C0560008C4560008704770477047034621
:1032000011F8012B03F8012B002AF9D170472DE9A1
:10321000F74F03690C69A34207467EDB013C01F1CD
:103220001408A30000F11405009305EB8403019337
:1032300058F8243055F8242001339A4208EB8409C9
:10324000B2FBF3F62ED34FF0000AC446AE46D34687
:103250005CF8043B98B206FB00A0020C1B0C06FBBA
:103260000323DEF8002080B292B2121A5A44DEF82C
:1032700000004FEA134A9BB2C3EB224303EB104317
:1032800092B242EA0342E1454EF8042B4FEA234B47
:10329000DED2009BEB582BB9019B043B9D421A46A2
:1032A0002FD33C61384601F079F9002825DB294607
:1032B000002058F8042BD1F800C01FFA82FE1FFA34
:1032C0008CF3A3EB0E030344120CC2EB234202EB7C
:1032D0001C429BB243EA0243C14541F8043B4FEA1A
:1032E0002240E6D255F8242005EB840322B9043BA2
:1032F0009D421A460BD33C610136304603B0BDE80F
:10330000F08F1268043B002ACBD1013CC6E712685B
:10331000043B002AEFD1013CEAE70020EEE7000081
:103320002DE9F04FC76999B08DED020B55EC104BAC
:10333000229E099183460E9213937FB9102000F0CC
:10334000FDFD0246CBF81C0020B9A74BEF21A74892
:1033500001F068FCC0E901770760C760DBF81C304A
:10336000196859B15A684A60012393408B605846E6
:1033700000F0DAFEDBF81C3000221A602B1EB9BF09
:1033800023F00043039300233360039F984BBCBF9B
:1033900001223260BB4312D1139A42F20F731360C1
:1033A000C7F31303234300F04D85239BDFF854A29A
:1033B000002B00F04F850AF1030300F049BD9DED9D
:1033C000027B002251EC170B00238DED0C7BFDF7E7
:1033D0007BFB804658B1139A01231360239B13B1E2
:1033E000239A844B1360DFF820A200F033BD9DEDDB
:1033F0000C0B16AA17A9584601F080F9C7F30A5614
:103400008146002E77D00D9BCDF85080C3F3130377
:10341000DDE90C0143F07F5343F44013A6F2FF367D
:1034200019460022744BFCF72FFF69A3D3E9002350
:10343000FDF7E2F868A3D3E90023FCF727FF044671
:1034400030460D46FDF76EF865A3D3E90023FDF77E
:10345000D3F802460B4620462946FCF717FF0446E0
:103460000D46FDF779FB002207460023204629463A
:10347000FDF734FB40B13846FDF754F822462B46A1
:10348000FDF722FB00B9013F162F51D85B4B03EB30
:10349000C703D3E90023DDE90C01FDF71FFB00287A
:1034A00048D0013F00231293169B9B1B5A1E44BF1A
:1034B000C3F101080023089254BF4FF0000808939D
:1034C000002F39DB089B0F973B44089300230A9396
:1034D000099B092B64D8052BC4BF043B0993099BA6
:1034E000A3F10203CCBF00240124032B63D8DFE83F
:1034F00003F02A373555DDE916631E4406F23243E0
:10350000202BC1BFC3F140039F4006F2124324FAAF
:1035100003F3D6BFC3F1200347EA030004FA03F024
:10352000FCF7F0FF0122A1F1F873013E149277E756
:103530000123B8E71290B7E77B420A930023A8EB78
:1035400007080F93C4E700230B930E9B002B35DC79
:103550000123009307931A460E920BE00123F3E731
:1035600000230B930E9BFB1800930133012B079351
:10357000B8BF0123DBF81C000021042202F114056E
:103580009D421FD94160584600F08EFD82460028BA
:103590003CD11B4B024640F2AF11D8E60123E0E7D5
:1035A0000124002309930B944FF0FF3300930793FA
:1035B00000221223D0E701230B93F5E70E9B009323
:1035C0000793D7E701315200D8E700BFAFF300807F
:1035D00061436F63A787D23FB3C8608B288AC63F19
:1035E000FB799F501344D33F8A530008A15300082E
:1035F0000000F07F5A5300080000F83F985400087C
:10360000F95300088653000859530008DBF81C30B2
:103610001860079B0E2B00F2A480002C00F0A18004
:10362000002F33DDAD4B07F00F0203EBC20393ED28
:10363000007BF8058DED047B4FEA271416D5A84BC7
:10364000DDE90C01D3E90823FDF700F9CDE902011A
:1036500004F00F040326A24D54B9DDE90423DDE98B
:103660000201FDF7F3F8CDE9020128E00226F2E7B6
:10367000E10708D5DDE90401D5E90023FCF7BCFF2B
:10368000CDE90401013664100835E5E700F0D28089
:103690007C42924B924D04F00F0203EBC203D3E93C
:1036A0000023DDE90C01FCF7A7FFCDE9020124119D
:1036B00000230226002C40F0B280002BD3D1129BB5
:1036C000DDE90245002B00F0B780864B0022204642
:1036D0002946FDF703FA002800F0AE80079B002B77
:1036E00000F0AA80009B002B37DD7B1E0493204650
:1036F0007D4B00222946FCF77FFFCDE90201009CAB
:1037000001363046FCF70EFFDDE90223FCF774FFBB
:10371000764B0022FCF7BAFD0546A1F15076002C4D
:1037200040F08D80DDE90201714B0022FCF7ACFD19
:1037300002460B46CDE902232A463346FDF7ECF953
:10374000002840F08B82DDE902012A4606F10043A1
:10375000FDF7C4F9002840F02881DDE90C34CDE9FB
:103760000234179B002BC0F25A810E2F00F35781B1
:103770005A4B03EBC70393ED007B0E9B002B8DEDA3
:10378000007B03DA079B002B40F30181DDE9024552
:103790005646DDE9002320462946FDF757F8FDF798
:1037A000DBF98046FCF7BEFEDDE90023FCF724FFD1
:1037B00002460B462046294608F13004FCF764FD1A
:1037C00006F8014B079DA6EB0A04A54202460B46EC
:1037D00040F01781FCF75AFDDDE9002304460D4651
:1037E000FDF79AF9002840F0F980DDE90023204632
:1037F0002946FDF769F918B118F0010F40F0EE8085
:103800004946584600F090FC00233370139B013763
:103810001F60239B002B00F01D831E601AE3E2074C
:1038200005D5D5E90023FCF7E7FE01360123641036
:1038300008353FE7022642E7079C049761E7274BDC
:103840000B9903EBC40353E902235444002953D0DA
:1038500028490020FCF7FAFF33462A46FCF714FDFE
:10386000CDE910015646DDE90201FDF775F905467F
:10387000FCF758FE02460B46DDE90201FCF704FDA9
:10388000303502460B46CDE9022306F8015BDDE93F
:103890001023FDF723F9002871D1DDE90223114936
:1038A0000020FCF7F1FCDDE91023FDF717F90028F3
:1038B00040F09580A6423FF450AFDDE910010A4B7D
:1038C0000022FCF799FE084BCDE910010022DDE94A
:1038D0000201FCF791FECDE90201C4E7985400080B
:1038E000705400080000F03F0000244000001C401D
:1038F000000014400000E03F31462846FCF77CFE03
:10390000CDE9100115945646DDE90201FDF724F9D1
:103910000546FCF707FE02460B46DDE90201FCF70F
:10392000B3FC303506F8015B02460B46A642CDE9F2
:1039300002234FF0000224D1AC4BDDE91001FCF76B
:10394000A5FC02460B46DDE90201FDF7E5F800287B
:1039500045D1DDE91023A5490020FCF795FC02467E
:103960000B46DDE90201FDF7B9F800283FF4F5AE9A
:10397000159E731E159316F8013C302BF8D0049F4A
:103980003EE79B4BFCF738FECDE90201BCE70CD1CA
:10399000984B0022DDE90001FCF72EFEDDE9022351
:1039A000FDF7B0F8002800F05781002425460E9B53
:1039B000DB430493564600272146584600F0B4FBEB
:1039C000002DDCD02FB1AF4203D03946584600F06D
:1039D000ABFB2946584600F0A7FBD0E704973346D7
:1039E0001E4613F8012D392A07D19A45F8D1049AB9
:1039F0000132049230228AF800201A7801321A70BB
:103A0000BDE77B4B0022FCF7F7FD002200230446B4
:103A10000D46FDF759F800283FF4BBAEF0E60B9ACF
:103A2000002A00F0DB80099A012A00F3BF80149A73
:103A3000002A00F0B78003F233430A9C4646089AF6
:103A400001211A4458469844089200F021FC05468A
:103A50005EB1089B002B08DDB342089AA8BF33462D
:103A6000A8EB0308F61AD31A08930A9BF3B10B9B31
:103A7000002B00F0B7808CB129462246584600F052
:103A8000C7FC4A4601460546584600F017FC494621
:103A90000490584600F048FB049B99460A9B1A1B69
:103AA00004D04946584600F0B3FC814601215846EF
:103AB00000F0EEFB0F9B0446002B00F0CF811A466E
:103AC0000146584600F0A4FC099B012B044600F374
:103AD0009580029B002B40F08780039BC3F3130368
:103AE000002B40F08980039B23F000431B0D1B0536
:103AF0002BB1089B0133089308F1010801230A93B5
:103B00000F9B002B00F0B081236904EB830318693D
:103B100000F072FBC0F12000089B184410F01F0059
:103B200077D0C0F12003042B6BDD089BC0F11C0093
:103B30000344804406440893B8F1000F05DD49466C
:103B40004246584600F0BEFC8146089B002B05DD2E
:103B500021461A46584600F0B5FC0446129B002B3D
:103B600059D02146484600F019FD002853DA7B1E43
:103B70000493494600230A22584600F0F7FA0B9BAB
:103B80008146002B00F07281002329460A22584604
:103B900000F0ECFA009B002B054667DC099B022B2A
:103BA00041DC63E0169BC3F1360346E7079B5C1ECE
:103BB0000A9BA342BFBF0A9B0F9A0A94E31AB4BFA1
:103BC000D2181C1B079BBCBF0F920024002BB5BF53
:103BD000A8EB0306079B0023464630E70A9C0B9D93
:103BE000464635E70A9A5CE7002388E70000E03F95
:103BF0000000244000001440029B80E700230A9349
:103C000082E799D0089A1C331A4498441E440892BB
:103C100092E70346F6E7079B0497002B20DC00930E
:103C2000099B022B1EDD009B002B7FF4C0AE2146BA
:103C30000522584600F09AFA01460446484600F02C
:103C4000ADFC00287FF7B3AE5646312306F8013BA2
:103C5000049B01330493AEE6079C04972546F3E7E3
:103C6000079B00930B9B002B00F00481002E05DDC9
:103C700029463246584600F025FC05460A9B002B93
:103C80005AD06968584600F00FFA064628B9844BA6
:103C9000024640F2EF21FFF75ABB2A690232920036
:103CA00005F10C010C3000F0AFFF012231465846FF
:103CB00000F008FC0AF101030793009B53440B93A7
:103CC000029B03F001032F460A930546079B2146FA
:103CD000013B48460093FFF79AFA3946029000F1FB
:103CE0003008484600F05AFC2A46089021465846BB
:103CF00000F070FCC268064602BB0146484600F070
:103D00004DFC0246314658460E9200F00DFA099BD2
:103D10000E9A079E43EA02010A9B194310D1B8F19B
:103D2000390F29D0089B002B02DD029B03F13108DB
:103D3000009B83F800803FE62846BBE70122E1E7CD
:103D4000089B002B04DB09990B430A990B4320D1F4
:103D5000002AEDDD49460122584600F0B3FB21461A
:103D6000814600F01BFC002803DCE1D118F0010FB4
:103D7000DED0B8F1390FD8D1009A39231370334609
:103D80001E46013B16F8012C392A52D001321A7016
:103D900012E6002A07DDB8F1390FEDD0009A08F1DC
:103DA0000103137008E6079B079A03F8018C0B9B2D
:103DB000934228D0494600230A22584600F0D6F9FB
:103DC000AF4281464FF000034FF00A023946584691
:103DD00007D100F0CBF907460546079B013307934F
:103DE00074E700F0C3F92946074600230A22584623
:103DF00000F0BCF90546F0E7009B002BCCBF1E4647
:103E000001265644002749460122584600F05AFB35
:103E10002146814600F0C2FB0028B0DC02D118F038
:103E2000010FACD133461E4613F8012D302AFAD0CB
:103E3000C2E59A45A4D1049B0133049331238AF847
:103E40000030B9E5239BDFF85CA01BB10AF1080341
:103E5000239A1360504619B0BDE8F08F099B012BDF
:103E60007FF737AE0F9B0A93012055E6009B002B8E
:103E70007FF7D6AE564621464846FFF7C8F900F10F
:103E8000300806F8018B009BA6EB0A029342B3DDD3
:103E9000494600230A22584600F068F98146EAE7BD
:103EA000F95300087D53000838B50546002941D074
:103EB00051F8043C0C1F002BB8BFE41800F0E8F8E0
:103EC0001D4A136833B9636014602846BDE8384062
:103ED00000F0E4B8A34208D9206821188B4201BF42
:103EE00019685B6809182160EDE71A465B680BB139
:103EF000A342FAD911685018A0420BD1206801449E
:103F0000501883421160E0D118685B685360084420
:103F10001060DAE702D90C232B60D6E7206821185D
:103F20008B4204BF19685B68636004BF0918216095
:103F30005460CAE738BD00BFE0070020024B0146CD
:103F4000186800F025B800BF1800002070B50F4EAB
:103F50000C463168054611B900F046FE3060214636
:103F6000284600F041FE431C03D14FF0FF342046A9
:103F700070BDC41C24F00304A042F8D0211A2846C6
:103F800000F032FE0130F2D1EFE700BFDC07002085
:103F90002DE9F843CD1C25F0030508350C2D38BF5D
:103FA0000C25002D064601DBA94204D90C23336001
:103FB0000020BDE8F883DFF8D48000F069F8D8F875
:103FC00000301C4644BB29463046FFF7BFFF431C68
:103FD000044658D1D8F800402746002F43D1002C82
:103FE0004BD023683946304604EB030900F0FCFD52
:103FF000814542D121686D1A29463046FFF7A6FF58
:1040000001303AD023682B442360D8F800305A6836
:1040100062BBC8F800700FE02268521B20D40B2A44
:1040200017D96119A342256018BF5960636808BF9A
:10403000C8F8001062514B60304600F02FF804F1D0
:104040000B00231D20F00700C21A1CBF1B1AA3502F
:10405000AFE76268A3420CBFC8F800205A60EBE7E4
:1040600023466468AEE73C467F68B6E71A465B685D
:10407000A342FBD100235360DEE70C2333603046BC
:1040800000F00CF894E70560D6E700BFE0070020D9
:104090000148FFF7B2B800BFD80700200148FFF77A
:1040A000ADB800BFD807002070B5C66904460D46FC
:1040B00076B91020FFF742FF0246E06120B9184BA5
:1040C00018486B2100F0AEFDC0E901660660C660CD
:1040D000E669F36883B1E369DB6853F82500B8B992
:1040E000012101FA05F6721D9200204600F0B8FD8C
:1040F00060B1C0E901560EE021220421204600F003
:10410000AFFDE369F060DB68002BE4D1002070BDF7
:10411000026843F825200023C0E90333F7E700BF16
:104120008A5300080A54000870B5C66905460C4653
:1041300076B91020FFF702FF0246E86120B9094B6B
:1041400009488F2100F06EFDC0E901660660C66077
:104150003CB1EB696268DB6853F82210216043F8D8
:10416000224070BD8A5300080A5400082DE9F0412E
:104170000D6907460C461E4601F1140C0020DCF8C0
:10418000003099B202FB01611E0C0B0C02FB0633DE
:1041900089B2013001EB034185424CF8041B4FEA20
:1041A0001346ECDC0EB3A368AB4219DC61683846F9
:1041B0000131FFF779FF804628B902460C4B0D48C4
:1041C000BA2100F02FFD2269023204F10C019200A5
:1041D0000C3000F019FD21463846FFF7A5FF444694
:1041E00004EB850301355E6125612046BDE8F08161
:1041F000F95300080A540008B0F5803F034636BF63
:10420000030400201020B3F1807F3CBF1B02083064
:10421000B3F1805F3CBF1B010430B3F1804F3CBF62
:104220009B000230002B05DB13F0804F00F10100F2
:1042300008BF202070470368024613F007000BD028
:10424000D90721D4980749BF5B089B080120136058
:104250005CBF13600220704799B209B91B0C102093
:10426000D9B209B908301B0A190704BF1B09043069
:10427000990704BF9B080230D90703D45B0800F1FB
:10428000010003D013607047002070472020704762
:1042900010B50C460121FFF707FF024628B9054B70
:1042A000054840F2451100F0BDFC01234461036163
:1042B00010BD00BFF95300080A5400082DE9F04F63
:1042C00014460A6923699A42A8BF23460F46A4BF31
:1042D0000C461F46D4F810A0D7F81090A368616868
:1042E0000AEB0906B34285B0B8BF0131FFF7DCFE27
:1042F00030B90246444B45484FF4B17100F092FC8E
:1043000000F1140505EB86082B460022434521D316
:1043100007F1140104F1140202EB8A0201EB890394
:104320000293131B153B23F00303043304F1150719
:10433000BA4238BF04230193029B03918B420CD8ED
:10434000002E03DD58F8043D002B5BD0066105B05C
:10435000BDE8F08F43F8042BD8E7B1F800A0BAF11C
:10436000000F24D004F1140EA9464FF0000C5EF8A3
:10437000047BD9F800301FFA87FB9BB20AFB0B3392
:104380004FEA174BD9F8007063444FEA174C0AFB09
:104390000BC707EB13479BB243EA0743724549F843
:1043A000043B4FEA174CE2D8019B45F803C0039B3E
:1043B000B3F802900431B9F1000F21D02B6804F159
:1043C000140CAE464FF0000ABCF800B0BEF8027004
:1043D00009FB0B7757449BB243EA07434EF8043B73
:1043E0005CF8043B4FEA134ABEF8003009FB0A337D
:1043F00003EB174362454FEA134AE5D8019FEB519F
:10440000043599E7013E9BE7F95300080A54000878
:104410002DE9F843154612F0030207460E4607D071
:10442000254C013A002354F82220FFF79FFE064650
:10443000AD103DD0FC697CB91020FFF77FFD02462E
:10444000F86128B91D4B1E4840F2B31100F0EAFB99
:10445000C0E901440460C460D7F81C80D8F8084063
:104460004CB940F271213846FFF712FF0023C8F81B
:104470000800044603604FF00009EB070AD53146F7
:1044800022463846FFF71AFF314680463846FFF786
:104490004BFE46466D100BD0206838B922462146A7
:1044A0003846FFF70BFF2060C0F800900446E4E7B1
:1044B0003046BDE8F88300BF645400088A53000802
:1044C0000A5400082DE9F0470C464968236903EBBC
:1044D0006218A368074691464FEA621A08F101067E
:1044E000B3420BDB3846FFF7DFFD054648B902460D
:1044F000284B29484FF4EF7100F094FB01315B0029
:10450000EEE7002300F1140100F1100218465345B4
:1045100033DB20692AEAEA7A04F1140319F01F094F
:1045200001EB8A0103EB800C2BD0C9F1200E8A46E7
:104530000022186800FA09F010434AF8040B53F8F7
:10454000042B9C4522FA0EF2F3D8ACEB0403153B86
:1045500023F00303043304F11500844538BF04231A
:10456000CA500AB108F10206013E38462E612146C2
:10457000FFF7DAFD2846BDE8F08742F8040F013363
:10458000C5E7043953F8042B41F8042F9C45F9D8AA
:10459000EAE700BFF95300080A5400080A69034615
:1045A0000069801A30B50ED11433143103EB820444
:1045B00001EB820154F8045D51F8042D954203D0BB
:1045C00005D24FF0FF3030BDA342F3D3FBE701200B
:1045D000F9E700002DE9F74F89460646114648469F
:1045E0001446FFF7DBFF051E12D129463046FFF7C0
:1045F0005BFD024628B93F4B40F237213E4800F0B0
:1046000011FB0123C0E90435104603B0BDE8F08F6B
:10461000BCBF4B46A1463046D9F80410BABF1C4671
:1046200001250025FFF740FD024618B9314B40F245
:104630004521E3E7D9F810702669C56009F1100338
:1046400009F1140504F1140E00F1140B05EB8708B1
:104650000EEB86060193D9464FF0000C019B5EF8E5
:10466000040B53F804AF01931FFA8AF3194683B27F
:10467000CB1A000C6344C0EB1A4000EB23409BB202
:1046800043EA0043764549F8043B4FEA204CE5D81D
:10469000331B153B23F0030315340433A64238BF04
:1046A00004231D445B441E462C4644450ED308F1AA
:1046B0000301491B21F00301033DA84538BF002138
:1046C0000B4453F8041D91B117619DE754F8041B86
:1046D000E646080C1CFA81FC714400EB2C4089B2C0
:1046E00041EA004146F8041B4FEA204CDDE7013F58
:1046F000E7E700BFF95300080A5400082DE9F74323
:104700000F46012159EC108B1646FFF7CDFC0446ED
:1047100030B90246234B244840F20F3100F082FAB0
:10472000C9F30A55C9F313030DB143F48013019380
:10473000B8F1000323D068460093FFF77CFDDDE964
:104740000012D0B1C0F1200302FA03F30B43C240C0
:1047500063610192019BA361002B0CBF0122022225
:104760002261A5B1A5F2334505443D60C0F1350095
:104770003060204603B0BDE8F0836161EAE701A83C
:10478000FFF759FD019B636120300122E8E704EB4C
:104790008203A0F2324038601869FFF72DFDC0EBAC
:1047A0004210E5E7F95300080A5400082DE9F047E4
:1047B0008E681F46BE420B6882460C4690462DD836
:1047C000B1F90C2012F4906F26D06569096905EBE8
:1047D0004505A3EB010905EBD5757B1C4B446D101A
:1047E0009D4238BF1D46530527D52946FFF7D0FB0C
:1047F000064660B321694A4600F006FAA38923F40D
:10480000906343F08003A381266165614E44A5EB6C
:1048100009052660A5603E46BE4200D93E46206896
:104820003246414600F0C6F9A3689B1BA36023688B
:10483000334423600020BDE8F0872A4600F036FAB2
:1048400006460028E0D121695046FFF72DFB0C23D6
:10485000CAF80030A38943F04003A3814FF0FF3032
:10486000E9E700002DE9F04F98468B891B069DB0C3
:1048700007460D46144610D50B6973B94021FFF762
:1048800087FB2860286130B90C233B604FF0FF3074
:104890001DB0BDE8F08F40236B61002309932023F6
:1048A0008DF82930CDF80C803023DFF89C818DF80D
:1048B0002A304FF0010923469A4613F8012B0AB11A
:1048C000252AF9D1BAEB040B0BD05B4622462946C8
:1048D0003846FFF76BFF013000F0A780099A5A4471
:1048E00009929AF80030002B00F09F8000234FF0CF
:1048F000FF32CDE905230AF1010A049307938DF8ED
:1049000053301A935446052214F8011B4E48FBF706
:104910005FFC049AD8B9D00644BF20238DF85330E9
:10492000110744BF2B238DF853309AF800302A2BFF
:1049300015D0079A544600204FF00A0C214611F872
:10494000013B303B092B4BD9B0B1079214E0A0EBEF
:10495000080309FA03F313430493A246D2E7039B27
:10496000191D1B680391002BBBBF5B4242F0020282
:1049700007930793B8BF049223782E2B0AD163784C
:104980002A2B32D1039B1A1D1B68039243EAE3735F
:1049900002340593DFF8C0A0217803225046FBF7CC
:1049A00017FC38B1049BA0EB0A004022824013435D
:1049B0000134049314F8011B24488DF828100622B2
:1049C000FBF706FC002836D0214B1BBB039B0733AB
:1049D00023F0070308330393099B334409936AE7E1
:1049E0000CFB02320C460120A8E70023013405939A
:1049F00019464FF00A0C204610F8012B303A092ACC
:104A000003D9002BC6D00591C4E70CFB0121044655
:104A10000123F0E703AB00932A460E4B04A9384666
:104A2000FDF790FE421C0646D6D1AB895B063FF5EA
:104A30002DAF09982CE703AB00932A46054B04A938
:104A40003846FEF717F9EDE7605500086A5500088B
:104A500045270008AD47000866550008B1F90C204D
:104A60002DE9F041160705460C4654D44B68002B3F
:104A700002DC0B6C002B48DDE66A002E45D00023DB
:104A800012F480522F68216A2B6030D0626DA389A6
:104A9000590705D56368D21A636B0BB1236CD21A20
:104AA0000023E66A216A2846B047431CA38906D141
:104AB00029681D292BD82A4A0A41D60727D4002263
:104AC0006260D9042269226004D5421C01D12B689E
:104AD00003B96065616B2F60B9B104F14403994279
:104AE00002D02846FFF7E0F9002363630DE00123BD
:104AF0002846B0470246501CC9D12B68002BC6D0AF
:104B00001D2B01D0162B1ED12F60002022E043F078
:104B100040031BB21BE00F69002FF6D093070E680D
:104B200008BF4B690F6018BF0023A6EB07088B6016
:104B3000B8F1000FE9DD216AA66A43463A462846E5
:104B4000B047002808DCB4F90C3043F04003A381DF
:104B50004FF0FF30BDE8F0810744A8EB0008E7E71D
:104B6000FEFFBFDF38B50B6905460C4613B90025BB
:104B7000284638BD18B1036A0BB9FEF727FAB4F915
:104B80000C30002BF3D0626ED00704D4990502D408
:104B9000A06DFEF732FB28462146FFF75FFF636EEC
:104BA000DA070546E4D4A3899B05E1D4A06DFEF79E
:104BB00025FBDDE7884210B501EB020402D98442EF
:104BC000234607D8431EA14208D011F8012B03F851
:104BD000012FF8E7024401468A4200D110BD13F8C4
:104BE000014D02F8014DF7E738B5064D00230446A4
:104BF00008462B60FCF784FB431C02D12B6803B1F1
:104C0000236038BDD40700200A44914200F1FF33ED
:104C100000D1704710B511F8014B03F8014F9142D4
:104C2000F9D110BD1FB514461A46094B1B6805463D
:104C3000D86854B9074B1C46CDE9013400912B4686
:104C4000054900F06FF800F07FF8044BF4E700BF6F
:104C5000180000201A530008885500087B550008EA
:104C600070B5A1FB02543CB92946FFF791F90646FD
:104C700028B90026304670BD0C220260F9E72A46AA
:104C80002146FEF73CFAF5E782B001B901A942B12D
:104C90004BB113780B601278101E18BF012002B0C0
:104CA00070471046FBE76FF00100F8E72DE9F0418F
:104CB000804615460C4621B9BDE8F0411146FFF784
:104CC00067B92AB9FFF7F0F800242046BDE8F08163
:104CD00000F041F88542064602D8B5EB500FF4D8F3
:104CE00029464046FFF754F907460028ECD0B54264
:104CF0002A46214628BF3246FFF786FF2146404616
:104D0000FFF7D2F83C46E0E70346084641B1FF2AE8
:104D100004D98A221A604FF0FF3070470A700120D0
:104D2000704700000EB403B5014603AB054853F8C5
:104D3000042B0068019300F03FF802B05DF804EB2B
:104D400003B070471800002008B5062000F008FAEC
:104D50000120FCF7A7FA51F8043C181F002BBCBF38
:104D60000B58C01870479368013B002B10B4936038
:104D700008DA9469A34201DB0A2903D15DF8044BE8
:104D800000F032B91368581C1060197008465DF8BD
:104D9000044B7047F8B506460F461446D518AC428A
:104DA00001D1002007E014F8011B3A463046FFF716
:104DB000DAFF431CF3D1F8BD2DE9F04F0D469DB04D
:104DC00014469846064618B1036A0BB9FEF7FEF87A
:104DD0006B6ED90705D4AB899A0502D4A86DFEF78E
:104DE0000CFAAB891B0701D52B699BB929463046C4
:104DF00000F038F970B16B6EDC0704D54FF0FF306E
:104E00001DB0BDE8F08FAB899805F7D4A86DFEF70B
:104E1000F5F9F3E70023099320238DF82930CDF825
:104E20000C803023DFF8AC818DF82A304FF0010977
:104E300023469A4613F8012B0AB1252AF9D1BAEB79
:104E4000040B0BD05B46224629463046FFF7A2FFF3
:104E5000013000F0A780099A5A4409929AF800306C
:104E6000002B00F09F8000234FF0FF32CDE9052397
:104E70000AF1010A049307938DF853301A935446AC
:104E8000052214F8011B5348FBF7A2F9049AD8B97C
:104E9000D10644BF20238DF85330130744BF2B2382
:104EA0008DF853309AF800302A2B15D0079A5446C3
:104EB00000204FF00A0C214611F8013B303B092B32
:104EC0004BD9B0B1079214E0A0EB080309FA03F341
:104ED00013430493A246D2E7039B191D1B68039159
:104EE000002BBBBF5B4242F0020207930793B8BF9F
:104EF000049223782E2B0AD163782A2B32D1039B7C
:104F00001A1D1B68039243EAE37302340593DFF82A
:104F1000D4A0217803225046FBF75AF938B1049BFC
:104F2000A0EB0A004022824013430134049314F89A
:104F3000011B29488DF828100622FBF749F90028A3
:104F40003FD0264B1BBB039B073323F007030833DB
:104F50000393099B3B4409936AE70CFB02320C461E
:104F60000120A8E700230134059319464FF00A0CED
:104F7000204610F8012B303A092A03D9002BC6D05D
:104F80000591C4E70CFB012104460123F0E703ABC4
:104F900000932A46124B04A93046FDF7D3FB07467F
:104FA000781CD6D16B6ED90705D4AB899A0502D48B
:104FB000A86DFEF723F9AB895B063FF51FAF099893
:104FC0001EE703AB00932A46054B04A93046FDF7C4
:104FD00051FEE4E7605500086A55000845270008BF
:104FE000954D000866550008F8B50E46144605466E
:104FF00018B1036A0BB9FDF7E9FFA369A360A389A0
:105000001A0701D5236943B92146284600F02AF83A
:1050100018B14FF0FF373846F8BD23682269981A57
:105020006369F6B28342374605DC21462846FFF71E
:1050300099FD0028EDD1A368013BA36023685A1CA9
:1050400022601E706269431C9A4204D0A389DB0768
:10505000E1D50A2EDFD121462846FFF783FD00283F
:10506000D9D0D6E738B5294B054618680C4618B193
:10507000036A0BB9FDF7AAFFB4F90C30190722D463
:10508000DA0607D409222A6043F04003A3814FF0D7
:10509000FF3033E0580712D5616B41B104F144038E
:1050A000994202D02846FEF7FFFE00236363A389DE
:1050B00023F02403A3810023636023692360A38971
:1050C00043F00803A38123694BB9A38903F4207338
:1050D000B3F5007F03D02146284600F083F8B4F9E9
:1050E0000C3013F001020AD00022A2606269524221
:1050F000A261226942B913F08000C5D138BD990779
:1051000058BF6269A260F4E70020F7E718000020AA
:105110001F2938B505460C4604D9162303604FF005
:10512000FF3038BDC26B12B152F821304BB928465E
:1051300000F030F8224601462846BDE8384000F02D
:1051400017B8012B0AD0591C03D116230360012084
:10515000E7E7002142F82410204698470020E0E7C6
:10516000024B01461868FFF7D3BF00BF18000020AC
:1051700038B5074D00230446084611462B60FCF75E
:1051800089F8431C02D12B6803B1236038BD00BFEE
:10519000D4070020FCF77CB870B50C46B1F90E10AE
:1051A000002996B015461E460DDAA38913F0800F2C
:1051B0004FF0000114BF40234FF4806300203160A2
:1051C0002B6016B070BD6A4600F048F80028ECDB92
:1051D000019901F47041A1F50053594259414FF42E
:1051E0008063EBE78B89F7B59D0706460C4607D52C
:1051F00004F14703236023610123636103B0F0BD21
:1052000001AB6A46FFF7C8FF009F054639463046A6
:10521000FEF7BEFE48B9B4F90C309A05EED423F07F
:10522000030343F00203A381E2E7A389206043F074
:105230008003A381019BC4E904075BB1B4F90E109C
:10524000304600F01DF828B1A38923F0030343F092
:105250000103A381A3891D43A581CFE738B5074D7D
:1052600000230446084611462B60FCF740F8431C17
:1052700002D12B6803B1236038BD00BFD4070020E2
:1052800038B5064D0023044608462B60FCF734F879
:10529000431C02D12B6803B1236038BDD407002022
:1052A000F8B500BFF8BC08BC9E467047F8B500BF13
:0852B000F8BC08BC9E467047E3
:1052B800496E6974204661696C65642100496E69AC
:1052C80074205375636365737321005265616420AC
:1052D8004661696C646521205472616E736D6974EE
:1052E8000052656164204661696C646521205472CE
:1052F800616E736D697452656365697665005265A0
:10530800616452656720727844617461203D20258C
:10531800580A0063686970494420213D2030783478
:10532800392C203D3D2025580000000000010203D3
:105338000400000000000000000102030406070842
:1053480009494E4600696E66004E414E006E616E18
:105358000030003031323334353637383941424342
:105368004445460030313233343536373839616296
:105378006364656600496E66696E697479004E619A
:105388004E005245454E54206D616C6C6F6320731E
:105398007563636565646564002F6275696C642F65
:1053A800676E752D746F6F6C732D666F722D7374C5
:1053B8006D33325F31322E332E72656C312E3230BE
:1053C8003234303330362D313733302F7372632F08
:1053D8006E65776C69622F6E65776C69622F6C6990
:1053E80062632F7374646C69622F64746F612E63D7
:1053F8000042616C6C6F63207375636365656465F7
:1054080064002F6275696C642F676E752D746F6FF9
:105418006C732D666F722D73746D33325F31322E5B
:10542800332E72656C312E32303234303330362DB3
:10543800313733302F7372632F6E65776C69622F43
:105448006E65776C69622F6C6962632F7374646C24
:1054580069622F6D707265632E630000050000009D
:10546800190000007D0000000080E03779C3414347
:10547800176E05B5B5B89346F5F93FE9034F384DB2
:10548800321D30F94877825A3CBF737FDD4F15755E
:10549800000000000000F03F000000000000244071
:1054A80000000000000059400000000000408F404C
:1054B800000000000088C34000000000006AF840B7
:1054C8000000000080842E4100000000D0126341DB
:1054D8000000000084D797410000000065CDCD4151
:1054E800000000205FA00242000000E87648374232
:1054F800000000A2941A6D42000040E59C30A242D0
:105508000000901EC4BCD64200003426F56B0C4344
:105518000080E03779C3414300A0D88557347643EB
:1055280000C84E676DC1AB43003D9160E458E1434C
:10553800408CB5781DAF154450EFE2D6E41A4B44C1
:1055480092D54D06CFF08044F64AE1C7022DB54406
:10555800B49DD9794378EA44232D302B2000686C18
:105568004C00656667454647004300504F5349580D
:10557800002E002C2066756E6374696F6E3A2000E9
:10558800617373657274696F6E20222573222066B9
:1055980061696C65643A2066696C6520222573220E
:1055A8002C206C696E65202564257325730A00001C
:1055B80020202020202020202028282828282020BB
:1055C80020202020202020202020202020202020D3
:1055D800881010101010101010101010101010104B
:1055E800040404040404040404041010101010102B
:1055F8001041414141414101010101010101010104
:105608000101010101010101010101101010101037
:1056180010424242424242020202020202020202D4
:1056280002020202020202020202021010101020FC
:105638000000000000000000000000000000000062
:105648000000000000000000000000000000000052
:105658000000000000000000000000000000000042
:105668000000000000000000000000000000000032
:105678000000000000000000000000000000000022
:105688000000000000000000000000000000000012
:105698000000000000000000000000000000000002
:1056A80000000000000000000000000000000000F2
:0856B80018ABFF7F01000000A8
:0456C000B501000828
:0456C4009101000848
:1056C8000024F400010000001000000000000000A9
:1056D80003000000980600201C00002000000000C5
:1056E800980600200007002068070020000000003E
:1056F80000000000000000000000000000000000A2
:105708000000000000000000000000000000000091
:105718000000000000000000000000000000000081
:10572800000000000000000043000000000000002E
:105738000000000000000000000000000000000061
:10574800000000000000000043000000000000000E
:105758000000000000000000000000000000000041
:1057680000000000000000004300000000000000EE
:105778000000000000000000000000000000000021
:1057880000000000000000004300000000000000CE
:105798000000000000000000000000000000000001
:1057A80000000000000000004300000000000000AE
:1057B80000000000000000000000000000000000E1
:1057C800000000000000000043000000000000008E
:1057D80000000000000000000000000000000000C1
:1057E800000000000000000043000000000000006E
:1057F80000000000000000000000000000000000A1
:105808000000000000000000094D0008894C000855
:1058180000000000B7550008795500081A53000821
:105828001A5300081A5300081A5300081A5300089C
:105838001A5300081A5300081A5300081A5300088C
:10584800FFFFFFFFFFFFFFFFFFFFFFFFFFFF00005E
:1058580001004153434949000000000000000000D6
:105868000000000000000000000000000000000030
:1058780000004153434949000000000000000000B7
:105888000000000000000000000000000000000010
:04589800000000000C
:04000005080013F9E3
:00000001FF
